:020000040000FA
:10000000C00A001075010000790100007B010000AA
:100010007D0100007F010000810100000000000060
:10002000000000000000000000000000830100004C
:100030008501000000000000870100008901000028
:100040008B0100008B0100008B0100008B01000080
:100050008B0100008B0100008B0100008B01000070
:100060008B0100008B0100008B0100008B01000060
:100070008B0100008B0100008B0100008B01000050
:100080008B0100008B0100008B0100008B01000040
:100090008B0100008B0100008B0100008B01000030
:1000A000ED0F00008B0100008B0100008B010000B0
:1000B0008B0100008B0100008B0100008B01000010
:1000C0008B0100008B0100008B01000000F002F8A2
:1000D00000F03CF80AA090E8000C82448344AAF1A6
:1000E0000107DA4501D100F031F8AFF2090EBAE8A4
:1000F0000F0013F0010F18BFFB1A43F0010318475C
:10010000B0180000D0180000103A24BF78C878C199
:10011000FAD8520724BF30C830C144BF04680C600D
:10012000704700000023002400250026103A28BF55
:1001300078C1FBD8520728BF30C148BF0B60704759
:100140001FB500F0CBF81FBD10B510BD00F058F87A
:100150001146FFF7F5FF01F040F900F044F803B451
:10016000FFF7F2FF03BC00F075F80000D0F800D0F4
:10017000D0F804F008480047FEE7FEE7FEE7FEE798
:10018000FEE7FEE7FEE7FEE7FEE7FEE70348044979
:10019000024A044B70470000CD000000C008001068
:1001A000C00A0010C008001000F0E2BC70477047A1
:1001B00070477047022803D0032803D100F08BBC9E
:1001C00000F0A6BC70477047704770477047704793
:1001D0007047704770477047704770477047704767
:1001E0007047704770470446AFF300802046FFF722
:1001F000B6FF000000487047600800104433221129
:100200007546FFF7F7FFAE4605006946534620F0F6
:100210000700854618B020B5FFF7B8FFBDE82040BD
:100220004FF000064FF000074FF000084FF0000BB2
:1002300021F00701AC46ACE8C009ACE8C009ACE865
:10024000C009ACE8C0098D467047000000487047FF
:100250006408001001491820ABBEFEE7260002002A
:1002600070470000194810B50078C0F30401174822
:10027000C07849BB15490839012806D0134A02281D
:10028000937806D003281FD112E01148086012208D
:1002900012E01048002204E004780CB144882044A5
:1002A000521C9342F8D1027872B10860408803E092
:1002B00009481844086000788A88824200D98880FA
:1002C00000F065FC012010BD002010BD34000010BE
:1002D000DA170000EC1700000D18000010B5FFF74A
:1002E000B5FF4FF00001016010BD20454E41424C6A
:1002F000450000000000000000000000FFFFFFFFBD
:1003000070B555482021C0F8A01100BFD0F8A01149
:100310004906FBD500F180000325C0F884504FF05A
:100320000003C0F82831C0F82C314FF00104C0F8A8
:100330008C404FF00801416004604FF0AA01C16099
:100340004FF05502C260A0F1800000BFD0F8886075
:100350007601FBD540F8805FC160C260222646620C
:100360000462C162C262A0F1800000BFD0F8A84060
:100370006405FBD500F1880085614162426237491E
:10038000C163C0F8403150F888196FEA11618A07DB
:100390003349D0F80C2102F0030207D092B3012AAE
:1003A00046D0022A4AD0032A51D13BE02AB1012A81
:1003B00011D0022A27D0032A49D150F8882FC2F33E
:1003C0000E02521C53000268C2F30742521CB3FBD8
:1003D000F2F2244B0CE050F8882FC2F30E02521CAC
:1003E00053000268C2F30742521CB3FBF2F21E4BE9
:1003F0005A43C36FA0F18800DBB203F10103B2FBE3
:10040000F3F223E00EE050F8882FC2F30E02521CE4
:1004100053000268C2F30742521CB3FBF2F24FF4DE
:10042000FA43E5E7D0F804210E4BD2B2521C0BE0A0
:10043000D0F804210C4BD2B2521C05E0D0F80421B4
:100440004FF4FA43D2B2521CB3FBF2F20A6044F208
:100450003A01016070BD000000C00F40DE872884B3
:100460000000001000093D000024F400FF490020B6
:10047000087001207047FE49002008700120704775
:1004800070B5FC4AFB4C0023D568FB4AE468526F08
:10049000141B04F6010433E0B0F5007F19D21328D1
:1004A0000DD014280ED0B0F5FF7F0ED0A0F58072CD
:1004B000FF3A0CD01D281ED8F04A125C1CE0C4F391
:1004C000472219E0C4F3474216E0552214E0AA225D
:1004D00012E0B0F5006F04D2E94A0244A2F50072BE
:1004E00007E0E84AE84E1268B24204D12A18A2F5A1
:1004F0000062127800E00022E44E401CF2545B1CC3
:100500008B42C9D370BD70B5D84DEC68402C00D972
:100510004024D948416FD748C068091AA86801F635
:10052000010203199A4204D20C1A042104F60104B0
:1005300029702146FFF7A4FF2246D449822000F00B
:100540001DFDA8682044A860E868011BCF48E96049
:1005500000F19F008268A2EB0402826005D0297836
:10056000022901D00021017370BD03212970F9E730
:10057000C64910B59F31C64808600D22822000F0A0
:10058000FDFCBA490520087010BD2DE9F05F054655
:10059000B8480E46B5F5007FC0682BD3B5F5006F9F
:1005A0002AD2BA4FDFF8ECA20024DFF8D892403705
:1005B000DFF8CC824FEA3A4B1AE0291901EB080226
:1005C000385DA2F50072E528107010D1D9F800301E
:1005D000534501D05B450AD1B1F5C46F07D1A3489B
:1005E000006920B900F03FFEA04901200861641CA9
:1005F000B442E2D3BDE8F09F2844BDE8F05F0A466C
:10060000A249A0F50060403100F0C1BD9A4810B584
:10061000416F9848954CC0686378091AA06801F644
:10062000010203449A4207D2081A401C6070052058
:100630002070022000F05CFC6178A068FFF7A5FF45
:100640006178A0680844A060E068421A8F48E260C0
:1006500000F19F008368A3EB0101816002D0217843
:10066000052904D100210173BDE8104080E710BDC9
:100670002DE9F04180487D4C416F7E486378C06829
:10068000081AA16800F601020B449A4207D2401AE8
:10069000401C607005202070022000F029FC7B4F78
:1006A0000020617807F14003A26808E015181E5C7D
:1006B0007D5DB54202D00020606002E0401C8842AF
:1006C000F4D35018A060E068421A7048E26000F16C
:1006D0009F008368A3EB0101816002D02178052986
:1006E00007D16268012102B100210173BDE8F04128
:1006F0003EE7BDE8F081654810B58030D0F81110B4
:10070000027D09BA21F0FF011143584A4902916064
:10071000C18A49BA4902D160806888420DD08220DE
:1007200000F0E6FB022000F0E3FB584902209F3175
:100730000873FFF71DFF002010BD012010BD70B52C
:10074000524880300224816800F11F0529B1007BE6
:10075000000607D4022000F0CBFB2C73FFF708FF44
:10076000002070BD012070BD10B548483F4C80305E
:1007700080686178884200D2607044496278403174
:10078000822000F0FBFB03202070404862789F30FD
:100790008168891A81600021017310BD3B4810B542
:1007A0008030816839B1007B000601D5822000E0ED
:1007B000022000F09DFB354900209F310873BDE801
:1007C0001040D5E610B5FFF7BAFF00281FD02F481C
:1007D0007021403002220170002141708270C1708E
:1007E0000171417181710A22C2710172417281727B
:1007F000C17230220273012242738173C17301748A
:1008000041741A4912204870BDE81040ACE710BD91
:1008100070B5FFF794FF002858D01C4800224030E4
:1008200080230270437082700121C1702021017108
:1008300043718271C2714B22027265224272692336
:1008400083726C22C272017341738173C1734C2233
:10085000027450224274432282743124C4743722B9
:100860000275302242758275C17515E004000010D2
:10087000F8060010C0180000381900007C170000AE
:100880004C000010FC010000443322114C06001003
:100890005553425321436587442505764376732398
:1008A00083766B23C376017741778177C17780F8B0
:1008B00020402E2380F8213080F8222080F8231059
:1008C000A64924204870BDE870404DE770BD10B5C2
:1008D000FFF735FF00280CD0A1480321017000214B
:1008E00041708170C1709D4904204870BDE810407E
:1008F0003AE710BD10B5FFF722FF002810D0984846
:1009000000210622017042708170C1700171417135
:100910008171C171914908204870BDE8104023E7FA
:1009200010BD10B5FFF70BFF00281ED08D48416F9A
:100930008D48C068081A00F601004FF0FF3101EB46
:10094000502187480A0E02700A0C42700A0A82700F
:10095000C17000210171417102228271C1717F4910
:1009600008204870BDE81040FEE610BD10B5FFF746
:10097000E6FE002821D07A4800210822017041704B
:100980008170C270774A0171536F774AD2689A1AA0
:1009900002F60102530E4371C2F347438371C2F35F
:1009A0004722C2710222027241728272C1726B4985
:1009B0000C204870BDE81040D6E610BD2DE9F0418E
:1009C000664D674C002069784034654A02E0135C4C
:1009D0002354401C0B468842F9D31F2B72D1206848
:1009E000624988426ED15E4E60685F364FF0010802
:1009F0007060A068B060607B18B9A07B08B1102857
:100A000002D986F80C8059E0E07B1E28F9D00FDC73
:100A100012282ED005DC48B30328F2D1BDE8F041FE
:100A2000D0E61528EDD01A28EBD1BDE8F0414EE70D
:100A300002272A2828D010DC23281DD025281ED0E4
:100A40002828DED1FFF757FE002826D0207B00069D
:100A500018D52F70BDE8F04155E52F281ED0552838
:100A6000CFD05A28CDD1BDE8F04143E7BDE8F041F1
:100A700094E6BDE8F041CBE6BDE8F04176E7BDE89D
:100A8000F0414EE7022016E0FFF735FE002804D0C3
:100A9000207B00060ED485F800802AE6FFF72BFEA7
:100AA0000028FAD0207B000604D485F80080C5F821
:100AB00004801EE6822000F01BFA3773BDE8F04187
:100AC00056E5FFE7822000F013FA022000F010FA4A
:100AD000062028700DE6214810B50178022908D0BB
:100AE00003290ED004290FD0052901D1002101705E
:100AF00010BD1B484030C07B2828F9D1BDE810400C
:100B000001E5BDE8104033E5822000F0F1F9F8E797
:100B100010B51349022000F0FFF910494870087819
:100B200058B101280CD0022000F0E2F90C49022053
:100B30005F310873BDE810401AE5BDE810403DE79D
:100B400007484030C07B2A2804D02F2805D1BDE8B3
:100B500010408DE5BDE8104058E510BD04000010C0
:100B60008C06001038190000C0180000555342438D
:100B7000664800214FF00112818001704170C0E988
:100B80000221704761491C31002000F0C5B910B541
:100B90005E4C1434A288402A00D94022802021686B
:100BA00000F0ECF9216801442160A188081AA080B6
:100BB00010BD10B5554C00201434216800F0ACF97C
:100BC000216801442160A188081AA08010BD00227C
:100BD0001146802000F0D2B94D49002000F09CB9A8
:100BE0002DE9F041494C00271C34484D2178A4F1EF
:100BF0000806082863D2DFE800F0620464726262CB
:100C00008381FFF7BFFF2078C00900F052F9E08828
:100C1000B0802078C0F34111F1BB61780C294AD231
:100C2000DFE801F00609490B49101A1D1F25314262
:100C300000F0FEFB4DE0002000E0012000F038FC59
:100C400050B306E0C0F3040030BBA07840F0800051
:100C50002870BDE8F041BAE7FFF704FB39E0002057
:100C60002AE0C0F30400B8B92848401C1AE0C0F3D9
:100C7000040088B900F064FC70B1FFF7A8FFBDE87C
:100C8000F041FFF795BAC0F30400012813D168784A
:100C900010B12079A97800E00DE088420BD21B4901
:100CA0001031084430601CE0C0F30400012802D178
:100CB00000F0ECFCC4E7802000F01AF9B780BDE832
:100CC000F081080608D4B0880028F8D0FFF771FF3B
:100CD000B0880028EFD0F2E7BDE8F0417CE70806D5
:100CE00002D5BDE8F04152E728780106E7D500F0CB
:100CF0007F002870BDE8F04100F043B8802000E09C
:100D00000020BDE8F04100F0FDB800001800001020
:100D1000F806001001464FEA00704FEAD06009065D
:100D200000D5401C7047E0491022C1F80822C1F8E4
:100D3000100200BFD1F80002C006FBD57047DA4AA6
:100D40001023C2F80832C2F8100200BFD2F8000225
:100D5000C006FBD5C2F80832C2F81012D2F8000261
:100D6000C006FBD57047D0493022C1F80822C1F82F
:100D7000100200BFD1F800028006FBD5D1F81402A2
:100D8000704730B5C949CA4D41EA0044214628465A
:100D9000FFF7D5FF21462846BDE83040CFE7C548DC
:100DA0000021016040214160012202604160A0F504
:100DB000127000BFD0F80012C905FBD500F5017014
:100DC0004FF0FF314163016341604FF00C0101605E
:100DD0007047B94900B51A200860091D0A6830EA51
:100DE0000202FBD1B548016921F44021016101698A
:100DF00041F480210161C16821F04051C160C168A6
:100E000041F00051C160416821F07051416041687A
:100E100041F0A0514160AA484FF080710160FFF796
:100E2000BEFF00205DF804EBABE700B101204FF4FA
:100E3000807141EA0041A34881E770477047A248AA
:100E40000088800702D5A1499E4878E7704770471F
:100E500010B500B101204FF4807444EA00419C4871
:100E6000FFF76DFF90480321C0F84412D0F800123C
:100E7000C905FBD5C0F8084210BD10B50246807800
:100E8000FFF748FF8B49091F0B68012404FA00F49F
:100E900023430B60486090888860A1F5117100BF02
:100EA000D1F80002C005FBD54FF48070C1F80802EC
:100EB00010BD704700B5FFF72DFF86495DF804EBC4
:100EC00041EA004089133AE700B5FFF723FF814963
:100ED0005DF804EB41EA00407F4930E700B5FFF7D9
:100EE00019FF7C495DF804EB41EA0040891326E7CD
:100EF00000B5FFF70FFF77495DF804EB41EA0040CA
:100F000072491CE700B5FFF705FF72495DF804EB75
:100F100041EA0040891312E770B5054600F00F0062
:100F2000012202EB8000604AC2F82802D2F82002B7
:100F30000305FBD5C0F309030020DC1C05E000BF5E
:100F4000D2F8186241F8046B401CB0EB940FF7D351
:100F50000020C2F8280241F24820E840C0070BD127
:100F60002846FFF7D7FE4FF4A06141EA0040FFF7A3
:100F7000DAFE5A48FFF7D7FE184670BD70B5054631
:100F8000134600F00F00022202EB80024648C0F830
:100F90002822C0F824320022DC1C04E051F8046B43
:100FA000C0F81C62521CB2EB940FF7D30021C0F8BA
:100FB00028122846FFF7AEFE4FF4A06141EA004038
:100FC000FFF7B1FE4648FFF7AEFE184670BD10B5FC
:100FD0004448FFF7A8FE444C2046FFF7C4FE0346F2
:100FE0002046FFF7C0FE43EA002010BD2DE9F04186
:100FF0002D4DD5F80032C5F8083218071BD53148F9
:10100000FFF791FE3948FFF7AEFEC10605D5FFF7A1
:10101000C6FEBDE8F041FFF7C7B8810710D401074D
:1010200009D5400703D5BDE8F041FFF7BFB8BDE8DB
:10103000F041FFF7BCB82E4E58074FF001071DD402
:10104000BDE8F0815FF00004D5F8301207FA04F033
:10105000014210D04FEA5401C5F83802D5F8000219
:101060008006FBD5D5F81402E2070CD056F8211003
:1010700009B103208847641C202CE5D3D5F8300241
:101080000028DFD1DCE744B9400706D5306820B13D
:101090000146012088470124D6E756F8211000298F
:1010A000E9D00220E6E7000000C000500001800007
:1010B0000005D00048C20050F4CF005000C00240EC
:1010C00000E100E00005FE001C000010000101002E
:1010D0000005D80000054000000120000005F200D6
:1010E0000005FA000005F5000002F5000002FE0010
:1010F0008018000062B67047644A104772B67047A5
:1011000070B572B63325624C2560C4E90330C4E97A
:10111000011204F114012046FFF7EEFF62B670BD24
:1011200030B45B4B322410C307C330BC191D584880
:10113000E2E730B4564B342410C307C330BC191D4A
:101140005348D9E770B5054672B60324514800BF2D
:1011500050F824208A4215D94E48783850F8240097
:10116000884209D121462A460846FFF7D9FF214681
:101170002A460846FFF7DDFF21462A460846FFF7C4
:10118000CFFF02E0641C1D2CE2D962B670BD2DE9D0
:10119000F041414C636803B96060A3683C4E002095
:1011A0001D46283605E00F5C05EB000C401C06F8D8
:1011B0000C709042F7D398184FF48076A060B0423C
:1011C00015D1D4E90001FFF7BDFF314D1435286872
:1011D00000B1FEE72E4AD4E9000133462832FFF77A
:1011E0008FFF286800B1FEE70020A060606000204B
:1011F000BDE8F08129494FF440500860FEF7B6BFC2
:10120000234810B53521016003214160816000F160
:101210001401FFF771FF1E4814300068002800D049
:10122000012010BD1E4A30B44FF0005313625363C7
:101230000021194C9D13506D40050BD5506B80F06B
:10124000005050630020E060401CA842FBD3491CC2
:101250002329F0D3D36300201062232901D130BCAD
:10126000C8E730BC704710B50B4C1D210320226825
:10127000FFF756FF1D2103202268FFF75AFF04489D
:1012800014300068002800D0FEE710BDF11FFF1FDA
:1012900038070010381900003C00001008ED00E08D
:1012A00000C00920002201E004C0091F0029FBD171
:1012B0007047814203D1704708C8121F08C1002A35
:1012C000FAD17047FFF71CF8474908684FF2FF0250
:1012D0001040464A40F480701043086044490020A2
:1012E000444A086044494548FFF7E3FF44494548FC
:1012F000FFF7D8FF4449F820444A0870FF2048709F
:10130000434B8870526FDB680324D21A02F6010542
:101310000223204603EB952619E000BF4FF0FF3370
:1013200003EB9523834202D140F6FF7300E0431C98
:10133000070AC7F30307085547EA031701EB040C34
:101340001B098CF80170E41C8CF80230801C86426A
:10135000E4D8304B00200D181C5C401C85F800447C
:101360004028F8D32C482D4C0368A34221D02C4CA4
:10137000A34203D1244C312384F80334294C03685D
:10138000A34203D1204C322384F803340068264B57
:10139000984203D11C4B332083F80304234B0420D1
:1013A0001C180D1814F8044C401C85F800440B2838
:1013B000F6D31548521C144980F83C24100A81F8D1
:1013C0003D04100C81F83E04100E81F83F04FFF735
:1013D00000FD0120FFF729FDFEE7FFF711FF08B12F
:1013E000FFF720FFFFF76EFF0CED00E00000FA05AD
:1013F000140000104C00000000000010D019000084
:10140000740A00004C0000104C0000103819000055
:10141000C01800009A170000FC010000443322119C
:10142000785634122143658765872143EA0200001C
:1014300070B51D481C4C0078083CC0F3040252B142
:101440001948A4F1140319495D780079012A06D0DE
:10145000022A26D109E01448183820601DE005B39F
:101460009A7890421DD2002015E000F08F020120F2
:1014700000FA02F0160604D502F00F064FF4803091
:10148000B0400DB912070CD19A68024209D0DA684F
:101490000242E8D0012008802160FFF778FB01209C
:1014A00070BD002070BD000034000010F806001070
:1014B00070B502462148A0F11C040178C1F3040371
:1014C0000146498823B1012B29D0022B27D111E0F5
:1014D000012924D132B10120FFF7B9FCA08840F0E6
:1014E000020005E00020FFF7B2FCA08820F0020017
:1014F000A08021E00079012500F08F0005FA00F5B9
:10150000030604D500F00F034FF480359D40637847
:101510002BB1030703D0A3682B4200D009B10020F0
:1015200070BD22B1FFF7E4FCE068284303E0FFF759
:10153000E9FCE068A843E060012070BD34000010C1
:101540002DE9F84F4F4F4FF000094FF0010AB878DE
:101550004FF4803BA7F11C06002869D04A4C63E099
:101560006078022804D0042840D005285AD140E0F1
:101570006179B878814237D170702079B070414973
:1015800000200C3901F80090401C0428FAD30125F2
:101590004FEA06080AFA05F0D8F80810084202D007
:1015A0002846FFF791FCD8F808100BFA05F008421E
:1015B00003D045F08000FFF787FC6D1C102DE9D3A8
:1015C0004FF00110C8E902090120FFF741FCE07962
:1015D0004006B8F8040002D540F0010001E020F018
:1015E0000100A8F804001DE060881CE0E07800908D
:1015F00018E00098B0B9A07800F08F050AFA05F05D
:10160000290603D505F00F010BFA01F0B16801437B
:101610002046B160FFF731FC2846FFF74BFC284617
:10162000FFF75CFC207804442078002898D120E063
:101630004D4686F801900124D046D946B16808FA93
:1016400004F0084202D02046FFF73EFCB16809FAD8
:1016500004F0084203D044F08000FFF735FC641C1E
:10166000102CEBD34FF00110C6E902050020FFF764
:10167000EFFBB8787178884202D10120BDE8F88F7D
:101680000020FBE734000010EC1700002DE9FC5FA0
:10169000384D687800286AD00027374C05F11C06C1
:1016A00061E06078022804D0042808D0052858D1C9
:1016B0001AE061796878814253D0608852E094F8EA
:1016C000028094F80390002000903179414548D180
:1016D000B178494545D127490127103111F8080053
:1016E000019001F808903CE03179414539D1A0786A
:1016F000012100F08F0A01FA0AF15FEA0A6004D5BD
:101700000AF00F004FF4803181408B46B178494593
:1017100015D1A86840EA0B00A860E86820EA0B0031
:10172000E8602046FFF7A9FB5046FFF7C3FB504691
:10173000FFF7D4FB009840EA0B00009011E00199FC
:1017400089450ED1009810EA0B0F0AD1A86820EA4B
:101750000B00A860E86820EA0B00E8605046FFF73D
:10176000B3FB20780444207800289AD13846BDE89D
:10177000FC9F000018000010EC170000EB3C904D9F
:1017800053444F53352E300002020100011000EC8B
:1017900003F80200010001000000435250204449B8
:1017A0005341424C452800000000000000000000AA
:1017B000000000000000000000004649524D574163
:1017C000524542494E2018BC4197373837380000FF
:1017D0003D6E2B38020000D00700120110010000FE
:1017E000004051C2031300010420480109022000F7
:1017F000010100803209040000020806506207055A
:1018000082024000000705020240000000040309B4
:10181000041C034E00580050002000530065006D6A
:1018200000690063006F006E006400200028034E12
:10183000005800500020004C005000430031003799
:10184000007800780020004D0065006D006F007288
:1018500000790020001A03440045004D004F00307D
:101860000030003000300030003000300030000E1A
:10187000034D0065006D006F0072007900000000EC
:10188000E10B000000000000B501000000000000B6
:101890000000000000000000000000000000000048
:1018A0000000000000000000000000000000000038
:1018B0000000000000000000000000000000000028
:1018C00000000000001000000020000000300000B8
:1018D00000400000005000000060000000700000A8
:1018E000008000000090000000A0000000B0000098
:1018F00000C0000000D0000000E0000000F0000088
:1019000000000100008001000000020000800200D1
:1019100000000300008003000000040000800400B9
:1019200000000500008005000000060000800600A1
:101930000000070000800700FF0F0000FF1F0000ED
:10194000FF2F0000FF3F0000FF4F0000FF5F00007F
:10195000FF6F0000FF7F0000FF8F0000FF9F00006F
:10196000FFAF0000FFBF0000FFCF0000FFDF00005F
:10197000FFEF0000FFFF0000FF7F0100FFFF0100FD
:10198000FF7F0200FFFF0200FF7F0300FFFF030055
:10199000FF7F0400FFFF0400FF7F0500FFFF05003D
:1019A000FF7F0600FFFF0600FF7F0700FFFF070025
:1019B000D0190000000000104C00000008010000D9
:1019C0001C1A00004C000010740A000024010000E2
:1019D00000093D00000000000000000000000000C1
:1019E00000000000000000000000000000000000F7
:1019F00000000000000000000000000000000000E7
:101A000000000000000000000000000080BB00009B
:0C1A1000000000000000000000000000CA
:04000005000000CD2A
:00000001FF
