:020000040000FA
:10000000D80A001075010000790100007B01000092
:100010007D0100007F010000810100000000000060
:10002000000000000000000000000000830100004C
:100030008501000000000000870100008901000028
:100040008B0100008B0100008B0100008B01000080
:100050008B0100008B0100008B0100008B01000070
:100060008B0100008B0100008B0100008B01000060
:100070008B0100008B0100008B0100008B01000050
:100080008B0100008B0100008B0100008B01000040
:100090008B0100008B0100008B0100008B01000030
:1000A0003D1000008B0100008B0100008B0100005F
:1000B0008B0100008B0100008B0100008B01000010
:1000C0008B0100008B0100008B01000000F002F8A2
:1000D00000F03CF80AA090E8000C82448344AAF1A6
:1000E0000107DA4501D100F031F8AFF2090EBAE8A4
:1000F0000F0013F0010F18BFFB1A43F0010318475C
:1001000080190000A0190000103A24BF78C878C1F7
:10011000FAD8520724BF30C830C144BF04680C600D
:10012000704700000023002400250026103A28BF55
:1001300078C1FBD8520728BF30C148BF0B60704759
:100140001FB500F0CBF81FBD10B510BD00F058F87A
:100150001146FFF7F5FF01F098F900F044F803B4F9
:10016000FFF7F2FF03BC00F075F80000D0F800D0F4
:10017000D0F804F008480047FEE7FEE7FEE7FEE798
:10018000FEE7FEE7FEE7FEE7FEE7FEE70348044979
:10019000024A044B70470000CD000000D808001050
:1001A000D80A0010D808001000F0E4BC704770476F
:1001B00070477047022803D0032803D100F08CBC9D
:1001C00000F0A7BC70477047704770477047704792
:1001D0007047704770477047704770477047704767
:1001E0007047704770470446AFF300802046FFF722
:1001F000B6FF000000487047740800104433221115
:100200007546FFF7F7FFAE4605006946534620F0F6
:100210000700854618B020B5FFF7B8FFBDE82040BD
:100220004FF000064FF000074FF000084FF0000BB2
:1002300021F00701AC46ACE8C009ACE8C009ACE865
:10024000C009ACE8C0098D467047000000487047FF
:100250007808001001491820ABBEFEE72600020016
:1002600070470000194810B50078C0F30401174822
:10027000C07849BB15490839012806D0134A02281D
:10028000937806D003281FD112E01148086012208D
:1002900012E01048002204E004780CB144882044A5
:1002A000521C9342F8D1027872B10860408803E092
:1002B00009481844086000788A88824200D98880FA
:1002C00000F067FC012010BD002010BD34000010BC
:1002D000AA180000BC180000DD18000010B5FFF7D8
:1002E000B5FF4FF00001016010BD20454E41424C6A
:1002F000450000000000000000000000FFFFFFFFBD
:1003000070B555482021C0F8A01100BFD0F8A01149
:100310004906FBD500F180000325C0F884504FF05A
:100320000003C0F82831C0F82C314FF00104C0F8A8
:100330008C404FF00801416004604FF0AA01C16099
:100340004FF05502C260A0F1800000BFD0F8886075
:100350007601FBD540F8805FC160C260222646620C
:100360000462C162C262A0F1800000BFD0F8A84060
:100370006405FBD500F1880085614162426237491E
:10038000C163C0F8403150F888196FEA11618A07DB
:100390003349D0F80C2102F0030207D092B3012AAE
:1003A00046D0022A4AD0032A51D13BE02AB1012A81
:1003B00011D0022A27D0032A49D150F8882FC2F33E
:1003C0000E02521C53000268C2F30742521CB3FBD8
:1003D000F2F2244B0CE050F8882FC2F30E02521CAC
:1003E00053000268C2F30742521CB3FBF2F21E4BE9
:1003F0005A43C36FA0F18800DBB203F10103B2FBE3
:10040000F3F223E00EE050F8882FC2F30E02521CE4
:1004100053000268C2F30742521CB3FBF2F24FF4DE
:10042000FA43E5E7D0F804210E4BD2B2521C0BE0A0
:10043000D0F804210C4BD2B2521C05E0D0F80421B4
:100440004FF4FA43D2B2521CB3FBF2F20A6044F208
:100450003A01016070BD000000C00F40DE872884B3
:100460000000001000093D000024F400FE490020B7
:10047000087001207047FD49002008700120704776
:1004800070B5FB4AFA4C0023D568FA4AE468526F0B
:10049000141B04F6010433E0B0F5007F19D21328D1
:1004A0000DD014280ED0B0F5FF7F0ED0A0F58072CD
:1004B000FF3A0CD01D281ED8EF4A125C1CE0C4F392
:1004C000472219E0C4F3474216E0552214E0AA225D
:1004D00012E0B0F5006F04D2E84A0244A2F50072BF
:1004E00007E0E74AE74E1268B24204D12A18A2F5A3
:1004F0000062127800E00022E34E401CF2545B1CC4
:100500008B42C9D370BD70B5D74DEC68402C00D973
:100510004024D848416FD648C068091AA86801F637
:10052000010203199A4204D20C1A042104F60104B0
:1005300029702146FFF7A4FF2246D349822000F00C
:1005400045FDA8682044A860E868011BCE48E96022
:1005500000F19F008268A2EB0402826005D0297836
:10056000022901D00021017370BD03212970F9E730
:10057000C54910B59F31C54808600D22822000F0A2
:1005800025FDB9490520087010BD2DE9F05F05462D
:10059000B7480E46B5F5007FC0682BD3B5F5006FA0
:1005A0002AD2B94FDFF8E8A20024DFF8D49240370E
:1005B000DFF8C8824FEA3A4B1AE0281900EB08022C
:1005C000395DA2F50072E529117010D1D9F800301B
:1005D000534501D05B450AD1B0F5C46F07D1A2489D
:1005E000006920B900F094FE9F4901200861641C55
:1005F000B442E2D3BDE8F09F2844BDE8F05F0A466C
:10060000A149A0F50060403100F0EDBD994810B55A
:10061000416F9748944CC0686378091AA06801F646
:10062000010203449A4207D2081A401C6070052058
:100630002070022000F082FC6178A068FFF7A5FF1F
:100640006178A0680844A060E068421A8E48E260C1
:1006500000F19F008368A3EB0101816002D0217843
:10066000052904D100210173BDE8104080E710BDC9
:100670002DE9F0417F487C4C416F7D486378C0682C
:10068000081AA16800F601020B449A4207D2401AE8
:10069000401C607005202070022000F04FFC7A4F53
:1006A0000020617807F14003A26808E015181E5C7D
:1006B0007D5DB54202D00020606002E0401C8842AF
:1006C000F4D35018A060E068421A6F48E26000F16D
:1006D0009F008368A3EB0101816002D02178052986
:1006E00008D1616821B100210173BDE8F0413FE705
:1006F0000121F9E7BDE8F081634810B58030D0F8FA
:100700001110027D09BA21F0FF011143564A490236
:100710009160C18A49BA4902D160806888420DD08F
:10072000822000F00BFC022000F008FC5649022059
:100730009F310873FFF71CFF002010BD012010BD82
:1007400070B5514880300224816800F11F0529B13D
:10075000007B000607D4022000F0F0FB2C73FFF7AB
:1007600007FF002070BD012070BD10B546483E4C0B
:10077000803080686178884200D260704249627837
:100780004031822000F022FC032020703E48627835
:100790009F308168891A81600021017310BD3A4839
:1007A00010B58030816839B1007B000601D5822008
:1007B00000E0022000F0C2FB334900209F310873A3
:1007C000BDE81040D4E610B5FFF7BAFF00281FD0EF
:1007D0002D4870214030022201700021417082704A
:1007E000C1700171417181710A22C271017241723D
:1007F0008172C17230220273012242738173C1730C
:1008000001744174184912204870BDE81040ACE7EB
:1008100010BD70B5FFF794FF002858D01A48002289
:10082000403080230270437082700121C17020210A
:10083000017143718271C2714B2202726522427250
:10084000692383726C22C272017341738173C17315
:100850004C22027450224274432282743124C474A4
:1008600037220275302215E0040000100C0700103A
:1008700090190000081A00004C18000060000010D9
:10088000FC0100004433221160060010555342530E
:100890002143658742758275C17544250576437687
:1008A000732383766B23C376017741778177C17792
:1008B00080F820402E2380F8213080F8222080F814
:1008C0002310A74924204870BDE870404DE770BD53
:1008D00010B5FFF735FF00280CD0A24803210170A6
:1008E000002141708170C1709D4904204870BDE8AD
:1008F00010403AE710BD10B5FFF722FF002810D0D6
:10090000984800210622017042708170C170017107
:1009100041718171C171924908204870BDE8104051
:1009200023E710BD10B5FFF70BFF00281ED08E483F
:10093000416F8E48C068081A00F601004FF0FF3181
:1009400001EB502187480A0E02700A0C42700A0A15
:100950008270C17000210171417102228271C171E6
:100960007F4908204870BDE81040FEE610BD10B574
:10097000FFF7E6FE002821D07A4800210822017006
:1009800041708170C270784A0171536F774AD268A2
:100990009A1A02F60102530E4371C2F34743837160
:1009A000C2F34722C2710222027241728272C17284
:1009B0006B490C204870BDE81040D6E610BD2DE90B
:1009C000F041674D674C002069784034654A02E089
:1009D000135C2354401C0B468842F9D31F2B72D161
:1009E0002068634988426ED15E4E60685F364FF082
:1009F00001087060A068B060607B18B9A07B08B186
:100A0000102802D986F80C8059E0E07B1E28F9D026
:100A10000FDC12282ED005DC48B30328F2D1BDE844
:100A2000F041D0E61528EDD01A28EBD1BDE8F04111
:100A30004EE702272A2828D010DC23281DD025289D
:100A40001ED02828DED1FFF757FE002826D0207BB5
:100A5000000618D52F70BDE8F04154E52F281ED0B0
:100A60005528CFD05A28CDD1BDE8F04143E7BDE8A5
:100A7000F04194E6BDE8F041CBE6BDE8F04176E711
:100A8000BDE8F0414EE7022016E0FFF735FE0028F2
:100A900004D0207B00060ED485F800802AE6FFF7FC
:100AA0002BFE0028FAD0207B000604D485F80080B5
:100AB000C5F804801EE6822000F040FA3773BDE8D6
:100AC000F04155E5FFE7822000F038FA022000F0FF
:100AD00035FA062028700DE6214810B50178022964
:100AE00008D003290ED004290FD0052901D10021F7
:100AF000017010BD1B484030C07B2828F9D1BDE8EB
:100B0000104000E5BDE8104032E5822000F016FA02
:100B1000F8E710B51349022000F026FA1049487092
:100B2000087858B101280CD0022000F007FA0D49CE
:100B300002205F310873BDE8104019E5BDE81040A0
:100B40003DE708484030C07B2A2804D02F2805D133
:100B5000BDE810408CE5BDE8104057E510BD000031
:100B600004000010A0060010081A000090190000F0
:100B700055534243664800214FF0011281800170B5
:100B80004170C0E90221704761491C31002000F02A
:100B9000EBB910B55E4C1434A288402A00D940222B
:100BA0008020216800F012FA216801442160A188A8
:100BB000081AA08010BD10B5554C002014342168CF
:100BC00000F0D2F9216801442160A188081AA080B0
:100BD00010BD00221146802000F0F8B94D490020D8
:100BE00000F0C2B92DE9F041494C00271C34484DB2
:100BF0002178A4F10806082863D2DFE800F0620437
:100C0000647262628381FFF7BFFF2078C00900F041
:100C100076F9E088B0802078C0F34111F1BB6178AB
:100C20000C294AD2DFE801F00609490B49101A1DC8
:100C30001F25314200F066FC4DE0002000E001205D
:100C400000F0A0FC50B306E0C0F3040030BBA07875
:100C500040F080002870BDE8F041BAE7FFF702FBE2
:100C600039E000202AE0C0F30400B8B92848401C4D
:100C70001AE0C0F3040088B900F0CCFC70B1FFF7B3
:100C8000A8FFBDE8F041FFF793BAC0F304000128C4
:100C900013D1687810B12079A97800E00DE088427E
:100CA0000BD21B491031084430601CE0C0F3040033
:100CB000012802D100F056FDC4E7802000F03EF983
:100CC000B780BDE8F081080608D4B0880028F8D0C5
:100CD000FFF771FFB0880028EFD0F2E7BDE8F041E0
:100CE0007CE7080602D5BDE8F04152E72878010606
:100CF000E7D500F07F002870BDE8F04100F05FB854
:100D0000802000E00020BDE8F04100F021B90000A3
:100D1000180000100C07001001464FEA00704FEA5F
:100D2000D060090600D5401C7047F3491022C1F875
:100D30000822C1F8100200BFD1F80002C006FBD59E
:100D40007047ED4A1023C2F80832C2F8100200BF03
:100D5000D2F80002C006FBD5C2F80832C2F8101261
:100D6000D2F80002C006FBD5704710B5E24A102445
:100D70000B46C2F80842FFF7CFFF4FF4A06141EAEB
:100D80000040C2F8100200BFD2F80002C006FBD536
:100D9000C2F80842C2F81032D2F80002C006FBD5F1
:100DA00010BDD5493022C1F80822C1F8100200BF99
:100DB000D1F800028006FBD5D1F81402704730B597
:100DC000CE49CF4D41EA004421462846FFF7B9FFFE
:100DD00021462846BDE83040B3E7CA4800210160FB
:100DE00040214160012202604160A0F5127000BF05
:100DF000D0F80012C905FBD500F501704FF0FF31A6
:100E00004163016341604FF00C0101607047BE49CE
:100E100000B51A200860091D0A6830EA0202FBD1F9
:100E2000BA48016921F440210161016941F480213E
:100E30000161C168B64A1140C160C168B54A114339
:100E4000C160C16821F04051C160C16841F00051EA
:100E5000C160416821F070514160416841F0A0518A
:100E60004160AD4851110160FFF7B7FF00205DF808
:100E700004EBA4E700B101204FF4807141EA004186
:100E8000A6485EE770477047A5480088800702D5EE
:100E9000A449A24855E77047704710B500B101203A
:100EA0004FF4807444EA00419F48FFF74AFF92489C
:100EB0000321C0F8441200BFD0F80012C905FBD5C9
:100EC000C0F8084210BD10B502468078FFF724FF35
:100ED0008C49091F0B68012404FA00F423430B60BA
:100EE000486090888860A1F5117100BFD1F80002B8
:100EF000C005FBD54FF48070C1F8080210BD7047E3
:100F000000B5FFF709FF89495DF804EB41EA0040AD
:100F1000891316E700B5FFF7FFFE84495DF804EB7F
:100F200041EA004082490CE700B5FFF7F5FE7F4932
:100F30005DF804EB41EA0040891302E700B5FFF7D2
:100F4000EBFE7A495DF804EB41EA00407549F8E6AA
:100F500000B5FFF7E1FE75495DF804EB41EA00409A
:100F60008913EEE6734900E770B5054600F00F00FF
:100F7000012202EB8000604AC2F82802D2F8200267
:100F80000305FBD5C0F309030020DC1C05E000BF0E
:100F9000D2F8186241F8046B401CB0EB940FF7D301
:100FA0000020C2F8280241F24820E840C0070BD1D7
:100FB0002846FFF7B1FE4FF4A06141EA0040FFF779
:100FC000B4FE5C48FFF7B1FE184670BD70B504462C
:100FD000134600F00F00022202EB8000464AC2F8DE
:100FE0002802C2F824320020DD1C04E051F8046B12
:100FF000C2F81C62401CB0EB950FF7D30020C2F87A
:1010000028022046FFF788FE4FF4A06141EA004025
:10101000FFF78BFE4848FFF788FE184670BD10B5F5
:101020004648FFF782FE464C2046FFF7BAFE0346CD
:101030002046FFF7B6FE43EA002010BD2DE9F0413F
:101040002D4DD5F80032C5F8083218071BD53348A6
:10105000FFF76BFE3B48FFF7A4FEC10605D5FFF77F
:10106000BCFEBDE8F041FFF79FB8810710D401072F
:1010700009D5400703D5BDE8F041FFF797B8BDE8B3
:10108000F041FFF794B8304E58074FF001071DD4D8
:10109000BDE8F0815FF00004D5F8301207FA04F0E3
:1010A000014210D04FEA5401C5F83802D5F80002C9
:1010B0008006FBD5D5F81402E2070CD056F82110B3
:1010C00009B103208847641C202CE5D3D5F83002F1
:1010D0000028DFD1DCE744B9400706D5306820B1ED
:1010E0000146012088470124D6E756F8211000293F
:1010F000E9D00220E6E7000000C0005000018000B7
:101100000005D00048C20050F4CF005000C002409B
:10111000CFFFFFCF1000002000E100E00005FE003F
:101120001C000010000101000005D800000540006F
:10113000000120000005F2000005FA000005F5009E
:101140000002F5000002FE005019000062B6704770
:10115000794A104772B6704770B572B63325774C2E
:101160002560C4E90330C4E9011204F114012046EA
:10117000FFF7EEFF62B670BD30B4704B322410C37F
:1011800007C330BC191D6D48E2E730B46B4B342403
:1011900010C307C330BC191D6848D9E770B50546B0
:1011A00072B60324664800BF50F824208A4215D93D
:1011B0006348783850F82400884209D121462A46ED
:1011C0000846FFF7D9FF21462A460846FFF7DDFF0C
:1011D00021462A460846FFF7CFFF02E0641C1D2C7B
:1011E000E2D962B670BD2DE9F041564CA36803B94F
:1011F000A060E368514E00201D46283605E00F5CD4
:1012000005EB000C401C06F80C709042F7D39818C0
:101210004FF48076E060B04215D1D4E90101FFF7C8
:10122000BDFF464D1435286800B1FEE7434AD4E9B6
:10123000010133462832FFF78FFF286800B1FEE72F
:101240000020E060A0600020BDE8F0813E494FF43E
:1012500040500860FEF78ABF384810B5352101605C
:1012600003214160816000F11401FFF771FF3348F1
:1012700014300068002800D0012010BD2DE9F003D3
:1012800032480024C16C2546B1F1BB3F01D1C56491
:1012900001242C481430D0E900121144D0E9022373
:1012A0001A4401EB02082A4AC2F82080254900238B
:1012B00081460878042800D10D70506D400501D496
:1012C00001241AE091F800C059F82C7057630020EF
:1012D00042F6E0660861401CB042FBD3D7630020B1
:1012E0004CF250360861401CB042FBD30CF1010CAB
:1012F0005B1C81F800C0142BDBD31562C2F83C8064
:10130000002C02D1BDE8F003A0E7BDE8F003704770
:1013100010B50C4C1D2103206268FFF72DFF1D2125
:1013200003206268FFF731FF04481430006800288A
:1013300000D0FEE710BD0000F11FFF1F4C0700109A
:10134000081A00003C00001008ED00E000400240D8
:1013500000C00920002201E004C0091F0029FBD1C0
:101360007047814203D1704708C8121F08C1002A84
:10137000FAD17047FEF7C4FF4F4908684FF2FF02E9
:1013800010404E4A40F48070104308604C490020E1
:101390004C4A08604C494D48FFF7E3FF4C494D4823
:1013A000FFF7D8FF4C49F8204C4B0870FF204870DD
:1013B0004B4A88705B6FD26803249A1A02F60105C3
:1013C0000223204603EB952619E000BF4FF0FF33C0
:1013D00003EB9523834202D140F6FF7300E0431CE8
:1013E000070AC7F30307085547EA031701EB040C84
:1013F0001B098CF80170E41C8CF80230801C8642BA
:10140000E4D8384B00200D181C5C401C85F80044C3
:101410004028F8D33448354C0368A34221D0344CDB
:10142000A34203D12C4C312384F80334314C03689C
:10143000A34203D1284C322384F8033400682E4B96
:10144000984203D1244B332083F803042B4B042010
:101450001C180D1814F8044C401C85F800440B2887
:10146000F6D31D48521C1C4980F83C24100A81F810
:101470003D04100C81F83E04100E81F83F04FFF784
:10148000C6FC0120FFF7F6FCFEE71D4800210160C5
:10149000016201640166C0F88010FF21C161C1636F
:1014A000C165C167C0F89C10FFF7D6FE08B1FFF711
:1014B000E5FEFFF75FFF00000CED00E00000FA051D
:1014C000140000106000000000000010A01A0000CE
:1014D000780A00006000001060000010081A000088
:1014E000901900006A180000FC010000443322112A
:1014F000785634122143658765872143EA0200004C
:1015000000C0092070B51D481C4C0078083CC0F391
:10151000040252B11948A4F1140319495D78007905
:10152000012A06D0022A26D109E014481838206082
:101530001DE005B39A7890421DD2002015E000F01E
:101540008F02100605D502F00F064FF48030B04030
:1015500001E0012090400DB912070CD19A680242B7
:1015600009D0DA680242E8D0012008802160FFF744
:1015700010FB012070BD002070BD00003400001081
:101580000C07001070B502462148A0F11C04017838
:10159000C1F304030146498823B1012B29D0022B52
:1015A00027D111E0012924D132B10120FFF774FCC9
:1015B000A08840F0020005E00020FFF76DFCA08845
:1015C00020F00200A08021E0007900F08F000306E7
:1015D00005D500F00F034FF480359D4001E0012553
:1015E000854063782BB1030703D0A3682B4200D05A
:1015F00009B1002070BD22B1FFF7A0FCE0682843CC
:1016000003E0FFF7A5FCE068A843E060012070BD9F
:10161000340000102DE9F84F504F4FF000094FF003
:10162000010AB8784FF4803BA7F11C0600286AD065
:101630004B4C64E06078022804D0042840D0052890
:101640005BD140E06179B878814237D17070207900
:10165000B070424900200C3901F80090401C042869
:10166000FAD301254FEA06080AFA05F0D8F808105F
:10167000084202D02846FFF74DFCD8F808100BFAB4
:1016800005F0084203D045F08000FFF743FC6D1CD5
:10169000102DE9D34FF00110C8E902090120FFF72E
:1016A000FCFBE0794006B8F8040002D540F00100E8
:1016B00001E020F00100A8F804001EE060881DE0B1
:1016C000E078009019E00098B8B9A07800F08F0594
:1016D000280604D505F00F010BFA01F001E00AFA23
:1016E00005F0B16801432046B160FFF7ECFB2846E6
:1016F000FFF706FC2846FFF717FC20780444207803
:10170000002897D121E04D4686F801900124D0466B
:101710004FEA0B09B16808FA04F0084202D02046EB
:10172000FFF7F8FBB16809FA04F0084203D044F06F
:101730008000FFF7EFFB641C102CEBD34FF001107F
:10174000C6E902050020FFF7A8FBB8787178884247
:1017500002D10120BDE8F88F0020FBE73400001023
:10176000BC1800002DE9FC5F364D6878002867D072
:101770000027354C05F11C065EE06078022804D095
:10178000042808D0052855D11AE060796978884284
:1017900050D060884FE094F80280317994F803903B
:1017A0004FF0000A414545D1B178494542D125481D
:1017B0000127103010F80810019100F8089039E066
:1017C0003179414536D1A07800F08F0B5FEA0B608C
:1017D00005D50BF00F014FF48030884002E0012066
:1017E00000FA0BF00090B178494513D1A868009930
:1017F0000843A860E8688843E8602046FFF763FB79
:101800005846FFF77DFB5846FFF78EFB00994AEAE2
:10181000010A0FE0019989450CD100991AEA010FDC
:1018200008D1A8688843A860E8688843E8605846FB
:10183000FFF770FB20780444207800289DD13846BB
:10184000BDE8FC9F18000010BC180000EB3C904D58
:1018500053444F53352E300002020100011000ECBA
:1018600003F80200010001000000435250204449E7
:101870005341424C452800000000000000000000D9
:10188000000000000000000000004649524D574192
:10189000524542494E2018BC41973738373800002E
:1018A0003D6E2B38020000D007001201100100002D
:1018B000004051C203130001042048010902200026
:1018C0000101008032090400000208065062070589
:1018D00082024000000705020240000000040309E4
:1018E000041C034E00580050002000530065006D9A
:1018F00000690063006F006E006400200028034E42
:10190000005800500020004C0050004300310037C8
:10191000007800780020004D0065006D006F0072B7
:1019200000790020001A03440045004D004F0030AC
:101930000030003000300030003000300030000E49
:10194000034D0065006D006F00720079000000001B
:10195000E50B000000000000B501000000000000E1
:101960000000000000000000000000000000000077
:101970000000000000000000000000000000000067
:101980000000000000000000000000000000000057
:1019900000000000001000000020000000300000E7
:1019A00000400000005000000060000000700000D7
:1019B000008000000090000000A0000000B00000C7
:1019C00000C0000000D0000000E0000000F00000B7
:1019D0000000010000800100000002000080020001
:1019E00000000300008003000000040000800400E9
:1019F00000000500008005000000060000800600D1
:101A00000000070000800700FF0F0000FF1F00001C
:101A1000FF2F0000FF3F0000FF4F0000FF5F0000AE
:101A2000FF6F0000FF7F0000FF8F0000FF9F00009E
:101A3000FFAF0000FFBF0000FFCF0000FFDF00008E
:101A4000FFEF0000FFFF0000FF7F0100FFFF01002C
:101A5000FF7F0200FFFF0200FF7F0300FFFF030084
:101A6000FF7F0400FFFF0400FF7F0500FFFF05006C
:101A7000FF7F0600FFFF0600FF7F0700FFFF070054
:101A8000A01A000000000010600000000801000023
:101A9000001B000060000010780A00002401000014
:101AA00000093D00000000000000000000000000F0
:101AB0000000000000000000000000000000000026
:101AC0000000000000000000000000000000000016
:101AD0000000000000000000000000000000000006
:101AE00080BB0000000000000000000000000000BB
:101AF0000000040000001000000020000000800032
:04000005000000CD2A
:00000001FF
